{
  "contractName": "Accounts",
  "abi": [
    {
      "inputs": [],
      "stateMutability": "nonpayable",
      "type": "constructor"
    },
    {
      "inputs": [
        {
          "internalType": "string",
          "name": "_handle",
          "type": "string"
        }
      ],
      "name": "getAccount",
      "outputs": [
        {
          "components": [
            {
              "internalType": "string",
              "name": "handle",
              "type": "string"
            },
            {
              "internalType": "string",
              "name": "name",
              "type": "string"
            },
            {
              "internalType": "string",
              "name": "subtitle",
              "type": "string"
            },
            {
              "internalType": "address",
              "name": "owner",
              "type": "address"
            },
            {
              "internalType": "string",
              "name": "profileImg",
              "type": "string"
            },
            {
              "components": [
                {
                  "internalType": "string",
                  "name": "label",
                  "type": "string"
                },
                {
                  "internalType": "string",
                  "name": "url",
                  "type": "string"
                },
                {
                  "internalType": "uint256",
                  "name": "etherLimit",
                  "type": "uint256"
                },
                {
                  "internalType": "bool",
                  "name": "enabled",
                  "type": "bool"
                },
                {
                  "internalType": "string",
                  "name": "thumbnail",
                  "type": "string"
                }
              ],
              "internalType": "struct Accounts.Link[]",
              "name": "links",
              "type": "tuple[]"
            }
          ],
          "internalType": "struct Accounts.Account",
          "name": "",
          "type": "tuple"
        }
      ],
      "stateMutability": "view",
      "type": "function",
      "constant": true
    },
    {
      "inputs": [
        {
          "components": [
            {
              "internalType": "string",
              "name": "handle",
              "type": "string"
            },
            {
              "internalType": "string",
              "name": "name",
              "type": "string"
            },
            {
              "internalType": "string",
              "name": "subtitle",
              "type": "string"
            },
            {
              "internalType": "address",
              "name": "owner",
              "type": "address"
            },
            {
              "internalType": "string",
              "name": "profileImg",
              "type": "string"
            },
            {
              "components": [
                {
                  "internalType": "string",
                  "name": "label",
                  "type": "string"
                },
                {
                  "internalType": "string",
                  "name": "url",
                  "type": "string"
                },
                {
                  "internalType": "uint256",
                  "name": "etherLimit",
                  "type": "uint256"
                },
                {
                  "internalType": "bool",
                  "name": "enabled",
                  "type": "bool"
                },
                {
                  "internalType": "string",
                  "name": "thumbnail",
                  "type": "string"
                }
              ],
              "internalType": "struct Accounts.Link[]",
              "name": "links",
              "type": "tuple[]"
            }
          ],
          "internalType": "struct Accounts.Account",
          "name": "_account",
          "type": "tuple"
        }
      ],
      "name": "createAccount",
      "outputs": [],
      "stateMutability": "nonpayable",
      "type": "function"
    }
  ],
  "bytecode": "0x60806040523480156200001157600080fd5b50336000806101000a81548173ffffffffffffffffffffffffffffffffffffffff021916908373ffffffffffffffffffffffffffffffffffffffff1602179055506040518060400160405280600781526020017f73616d692e3031000000000000000000000000000000000000000000000000008152506001600073706a1415bc5ea0576b5a93bee633f87e62ca759a73ffffffffffffffffffffffffffffffffffffffff1673ffffffffffffffffffffffffffffffffffffffff1681526020019081526020016000206000019080519060200190620000f39291906200103a565b506040518060400160405280600781526020017f53616d69203031000000000000000000000000000000000000000000000000008152506001600073706a1415bc5ea0576b5a93bee633f87e62ca759a73ffffffffffffffffffffffffffffffffffffffff1673ffffffffffffffffffffffffffffffffffffffff1681526020019081526020016000206001019080519060200190620001959291906200103a565b5073706a1415bc5ea0576b5a93bee633f87e62ca759a6001600073706a1415bc5ea0576b5a93bee633f87e62ca759a73ffffffffffffffffffffffffffffffffffffffff1673ffffffffffffffffffffffffffffffffffffffff16815260200190815260200160002060030160006101000a81548173ffffffffffffffffffffffffffffffffffffffff021916908373ffffffffffffffffffffffffffffffffffffffff1602179055506040518060600160405280602e815260200162002c3a602e91396001600073706a1415bc5ea0576b5a93bee633f87e62ca759a73ffffffffffffffffffffffffffffffffffffffff1673ffffffffffffffffffffffffffffffffffffffff1681526020019081526020016000206004019080519060200190620002c49291906200103a565b506001600073706a1415bc5ea0576b5a93bee633f87e62ca759a73ffffffffffffffffffffffffffffffffffffffff1673ffffffffffffffffffffffffffffffffffffffff1681526020019081526020016000206005016040518060a001604052806040518060400160405280600481526020017f4b6e6f7400000000000000000000000000000000000000000000000000000000815250815260200160405180606001604052806023815260200162002b8d6023913981526020016702c68af0bb14000081526020016001151581526020016040518060600160405280602e815260200162002bde602e913981525090806001815401808255809150506001900390600052602060002090600502016000909190919091506000820151816000019080519060200190620003fb9291906200103a565b5060208201518160010190805190602001906200041a9291906200103a565b506040820151816002015560608201518160030160006101000a81548160ff0219169083151502179055506080820151816004019080519060200190620004639291906200103a565b5050506001600073706a1415bc5ea0576b5a93bee633f87e62ca759a73ffffffffffffffffffffffffffffffffffffffff1673ffffffffffffffffffffffffffffffffffffffff1681526020019081526020016000206005016040518060a001604052806040518060400160405280600881526020017f576861747341707000000000000000000000000000000000000000000000000081525081526020016040518060400160405280601a81526020017f68747470733a2f2f77612e6d652f32303130313031383738313200000000000081525081526020016702c68af0bb14000081526020016001151581526020016040518060600160405280602e815260200162002cc8602e913981525090806001815401808255809150506001900390600052602060002090600502016000909190919091506000820151816000019080519060200190620005b89291906200103a565b506020820151816001019080519060200190620005d79291906200103a565b506040820151816002015560608201518160030160006101000a81548160ff0219169083151502179055506080820151816004019080519060200190620006209291906200103a565b5050506001600073706a1415bc5ea0576b5a93bee633f87e62ca759a73ffffffffffffffffffffffffffffffffffffffff1673ffffffffffffffffffffffffffffffffffffffff1681526020019081526020016000206005016040518060a001604052806040518060400160405280601181526020017f576861747341707020504552534f4e414c00000000000000000000000000000081525081526020016040518060400160405280601981526020017f68747470733a2f2f77612e6d652f3230313538313939383937000000000000008152508152602001670de0b6b3a764000081526020016001151581526020016040518060600160405280602e815260200162002cc8602e913981525090806001815401808255809150506001900390600052602060002090600502016000909190919091506000820151816000019080519060200190620007759291906200103a565b506020820151816001019080519060200190620007949291906200103a565b506040820151816002015560608201518160030160006101000a81548160ff0219169083151502179055506080820151816004019080519060200190620007dd9291906200103a565b50505073706a1415bc5ea0576b5a93bee633f87e62ca759a6002604051620008059062001145565b908152602001604051809103902060006101000a81548173ffffffffffffffffffffffffffffffffffffffff021916908373ffffffffffffffffffffffffffffffffffffffff1602179055506040518060400160405280600781526020017f73616d692e30320000000000000000000000000000000000000000000000000081525060016000734c8c8eb8a0cdeb8d448d485baac488065326dbaf73ffffffffffffffffffffffffffffffffffffffff1673ffffffffffffffffffffffffffffffffffffffff1681526020019081526020016000206000019080519060200190620008f29291906200103a565b506040518060400160405280600781526020017f53616d692030320000000000000000000000000000000000000000000000000081525060016000734c8c8eb8a0cdeb8d448d485baac488065326dbaf73ffffffffffffffffffffffffffffffffffffffff1673ffffffffffffffffffffffffffffffffffffffff1681526020019081526020016000206001019080519060200190620009949291906200103a565b50734c8c8eb8a0cdeb8d448d485baac488065326dbaf60016000734c8c8eb8a0cdeb8d448d485baac488065326dbaf73ffffffffffffffffffffffffffffffffffffffff1673ffffffffffffffffffffffffffffffffffffffff16815260200190815260200160002060030160006101000a81548173ffffffffffffffffffffffffffffffffffffffff021916908373ffffffffffffffffffffffffffffffffffffffff1602179055506040518060600160405280602e815260200162002d1b602e913960016000734c8c8eb8a0cdeb8d448d485baac488065326dbaf73ffffffffffffffffffffffffffffffffffffffff1673ffffffffffffffffffffffffffffffffffffffff168152602001908152602001600020600401908051906020019062000ac39291906200103a565b5060016000734c8c8eb8a0cdeb8d448d485baac488065326dbaf73ffffffffffffffffffffffffffffffffffffffff1673ffffffffffffffffffffffffffffffffffffffff1681526020019081526020016000206005016040518060a001604052806040518060400160405280600681526020017f476974687562000000000000000000000000000000000000000000000000000081525081526020016040518060400160405280601f81526020017f68747470733a2f2f6769746875622e636f6d2f73616d697368616c31393938008152508152602001670429d069189e000081526020016001151581526020016040518060600160405280602e815260200162002bb0602e91398152509080600181540180825580915050600190039060005260206000209060050201600090919091909150600082015181600001908051906020019062000c169291906200103a565b50602082015181600101908051906020019062000c359291906200103a565b506040820151816002015560608201518160030160006101000a81548160ff021916908315150217905550608082015181600401908051906020019062000c7e9291906200103a565b50505060016000734c8c8eb8a0cdeb8d448d485baac488065326dbaf73ffffffffffffffffffffffffffffffffffffffff1673ffffffffffffffffffffffffffffffffffffffff1681526020019081526020016000206005016040518060a001604052806040518060400160405280600881526020017f4c696e6b6564496e000000000000000000000000000000000000000000000000815250815260200160405180606001604052806032815260200162002c96603291398152602001670429d069189e000081526020016001151581526020016040518060600160405280602e815260200162002c0c602e91398152509080600181540180825580915050600190039060005260206000209060050201600090919091909150600082015181600001908051906020019062000db79291906200103a565b50602082015181600101908051906020019062000dd69291906200103a565b506040820151816002015560608201518160030160006101000a81548160ff021916908315150217905550608082015181600401908051906020019062000e1f9291906200103a565b50505060016000734c8c8eb8a0cdeb8d448d485baac488065326dbaf73ffffffffffffffffffffffffffffffffffffffff1673ffffffffffffffffffffffffffffffffffffffff1681526020019081526020016000206005016040518060a001604052806040518060400160405280600881526020017f46616365626f6f6b000000000000000000000000000000000000000000000000815250815260200160405180606001604052806025815260200162002cf6602591398152602001671bc16d674ec8000081526020016001151581526020016040518060600160405280602e815260200162002c68602e91398152509080600181540180825580915050600190039060005260206000209060050201600090919091909150600082015181600001908051906020019062000f589291906200103a565b50602082015181600101908051906020019062000f779291906200103a565b506040820151816002015560608201518160030160006101000a81548160ff021916908315150217905550608082015181600401908051906020019062000fc09291906200103a565b505050734c8c8eb8a0cdeb8d448d485baac488065326dbaf600260405162000fe890620011ac565b908152602001604051809103902060006101000a81548173ffffffffffffffffffffffffffffffffffffffff021916908373ffffffffffffffffffffffffffffffffffffffff16021790555062001227565b8280546200104890620011f2565b90600052602060002090601f0160209004810192826200106c5760008555620010b8565b82601f106200108757805160ff1916838001178555620010b8565b82800160010185558215620010b8579182015b82811115620010b75782518255916020019190600101906200109a565b5b509050620010c79190620010cb565b5090565b5b80821115620010e6576000816000905550600101620010cc565b5090565b600081905092915050565b7f73616d692e303100000000000000000000000000000000000000000000000000600082015250565b60006200112d600783620010ea565b91506200113a82620010f5565b600782019050919050565b600062001152826200111e565b9150819050919050565b7f73616d692e303200000000000000000000000000000000000000000000000000600082015250565b600062001194600783620010ea565b9150620011a1826200115c565b600782019050919050565b6000620011b98262001185565b9150819050919050565b7f4e487b7100000000000000000000000000000000000000000000000000000000600052602260045260246000fd5b600060028204905060018216806200120b57607f821691505b602082108103620012215762001220620011c3565b5b50919050565b61195680620012376000396000f3fe608060405234801561001057600080fd5b50600436106100365760003560e01c80634518f6b31461003b57806352e4a4371461006b575b600080fd5b61005560048036038101906100509190610eaa565b610087565b60405161006291906111db565b60405180910390f35b6100856004803603810190610080919061157d565b61070f565b005b61008f610b69565b60006002836040516100a19190611602565b908152602001604051809103902060009054906101000a900473ffffffffffffffffffffffffffffffffffffffff169050600073ffffffffffffffffffffffffffffffffffffffff168173ffffffffffffffffffffffffffffffffffffffff1603610141576040517f08c379a00000000000000000000000000000000000000000000000000000000081526004016101389061169c565b60405180910390fd5b6000600160008373ffffffffffffffffffffffffffffffffffffffff1673ffffffffffffffffffffffffffffffffffffffff1681526020019081526020016000206040518060c001604052908160008201805461019d906116eb565b80601f01602080910402602001604051908101604052809291908181526020018280546101c9906116eb565b80156102165780601f106101eb57610100808354040283529160200191610216565b820191906000526020600020905b8154815290600101906020018083116101f957829003601f168201915b5050505050815260200160018201805461022f906116eb565b80601f016020809104026020016040519081016040528092919081815260200182805461025b906116eb565b80156102a85780601f1061027d576101008083540402835291602001916102a8565b820191906000526020600020905b81548152906001019060200180831161028b57829003601f168201915b505050505081526020016002820180546102c1906116eb565b80601f01602080910402602001604051908101604052809291908181526020018280546102ed906116eb565b801561033a5780601f1061030f5761010080835404028352916020019161033a565b820191906000526020600020905b81548152906001019060200180831161031d57829003601f168201915b505050505081526020016003820160009054906101000a900473ffffffffffffffffffffffffffffffffffffffff1673ffffffffffffffffffffffffffffffffffffffff1673ffffffffffffffffffffffffffffffffffffffff1681526020016004820180546103a9906116eb565b80601f01602080910402602001604051908101604052809291908181526020018280546103d5906116eb565b80156104225780601f106103f757610100808354040283529160200191610422565b820191906000526020600020905b81548152906001019060200180831161040557829003601f168201915b5050505050815260200160058201805480602002602001604051908101604052809291908181526020016000905b8282101561065d57838290600052602060002090600502016040518060a0016040529081600082018054610483906116eb565b80601f01602080910402602001604051908101604052809291908181526020018280546104af906116eb565b80156104fc5780601f106104d1576101008083540402835291602001916104fc565b820191906000526020600020905b8154815290600101906020018083116104df57829003601f168201915b50505050508152602001600182018054610515906116eb565b80601f0160208091040260200160405190810160405280929190818152602001828054610541906116eb565b801561058e5780601f106105635761010080835404028352916020019161058e565b820191906000526020600020905b81548152906001019060200180831161057157829003601f168201915b50505050508152602001600282015481526020016003820160009054906101000a900460ff161515151581526020016004820180546105cc906116eb565b80601f01602080910402602001604051908101604052809291908181526020018280546105f8906116eb565b80156106455780601f1061061a57610100808354040283529160200191610645565b820191906000526020600020905b81548152906001019060200180831161062857829003601f168201915b50505050508152505081526020019060010190610450565b50505050815250509050600060018260a001515161067b919061174b565b90505b60008112610704573373ffffffffffffffffffffffffffffffffffffffff16318260a0015182815181106106b5576106b461177f565b5b60200260200101516040015111156106f1578160a0015181815181106106de576106dd61177f565b5b602002602001016106ed610bb5565b8152505b80806106fc906117b8565b91505061067e565b508092505050919050565b600073ffffffffffffffffffffffffffffffffffffffff166002826000015160405161073b9190611602565b908152602001604051809103902060009054906101000a900473ffffffffffffffffffffffffffffffffffffffff1673ffffffffffffffffffffffffffffffffffffffff16146107c0576040517f08c379a00000000000000000000000000000000000000000000000000000000081526004016107b79061184c565b60405180910390fd5b600073ffffffffffffffffffffffffffffffffffffffff16816060015173ffffffffffffffffffffffffffffffffffffffff1603610833576040517f08c379a000000000000000000000000000000000000000000000000000000000815260040161082a906118b8565b60405180910390fd5b806000015160016000836060015173ffffffffffffffffffffffffffffffffffffffff1673ffffffffffffffffffffffffffffffffffffffff1681526020019081526020016000206000019080519060200190610891929190610be6565b50806020015160016000836060015173ffffffffffffffffffffffffffffffffffffffff1673ffffffffffffffffffffffffffffffffffffffff16815260200190815260200160002060010190805190602001906108f0929190610be6565b50806060015160016000836060015173ffffffffffffffffffffffffffffffffffffffff1673ffffffffffffffffffffffffffffffffffffffff16815260200190815260200160002060030160006101000a81548173ffffffffffffffffffffffffffffffffffffffff021916908373ffffffffffffffffffffffffffffffffffffffff16021790555060016000826060015173ffffffffffffffffffffffffffffffffffffffff1673ffffffffffffffffffffffffffffffffffffffff16815260200190815260200160002060050160006109cc9190610c6c565b60005b8160a0015151811015610b005760016000836060015173ffffffffffffffffffffffffffffffffffffffff1673ffffffffffffffffffffffffffffffffffffffff1681526020019081526020016000206005018260a001518281518110610a3957610a3861177f565b5b602002602001015190806001815401808255809150506001900390600052602060002090600502016000909190919091506000820151816000019080519060200190610a86929190610be6565b506020820151816001019080519060200190610aa3929190610be6565b506040820151816002015560608201518160030160006101000a81548160ff0219169083151502179055506080820151816004019080519060200190610aea929190610be6565b5050508080610af8906118d8565b9150506109cf565b50806060015160028260000151604051610b1a9190611602565b908152602001604051809103902060006101000a81548173ffffffffffffffffffffffffffffffffffffffff021916908373ffffffffffffffffffffffffffffffffffffffff16021790555050565b6040518060c00160405280606081526020016060815260200160608152602001600073ffffffffffffffffffffffffffffffffffffffff16815260200160608152602001606081525090565b6040518060a00160405280606081526020016060815260200160008152602001600015158152602001606081525090565b828054610bf2906116eb565b90600052602060002090601f016020900481019282610c145760008555610c5b565b82601f10610c2d57805160ff1916838001178555610c5b565b82800160010185558215610c5b579182015b82811115610c5a578251825591602001919060010190610c3f565b5b509050610c689190610c90565b5090565b5080546000825560050290600052602060002090810190610c8d9190610cad565b50565b5b80821115610ca9576000816000905550600101610c91565b5090565b5b80821115610d0c5760008082016000610cc79190610d10565b600182016000610cd79190610d10565b60028201600090556003820160006101000a81549060ff0219169055600482016000610d039190610d10565b50600501610cae565b5090565b508054610d1c906116eb565b6000825580601f10610d2e5750610d4d565b601f016020900490600052602060002090810190610d4c9190610c90565b5b50565b6000604051905090565b600080fd5b600080fd5b600080fd5b600080fd5b6000601f19601f8301169050919050565b7f4e487b7100000000000000000000000000000000000000000000000000000000600052604160045260246000fd5b610db782610d6e565b810181811067ffffffffffffffff82111715610dd657610dd5610d7f565b5b80604052505050565b6000610de9610d50565b9050610df58282610dae565b919050565b600067ffffffffffffffff821115610e1557610e14610d7f565b5b610e1e82610d6e565b9050602081019050919050565b82818337600083830152505050565b6000610e4d610e4884610dfa565b610ddf565b905082815260208101848484011115610e6957610e68610d69565b5b610e74848285610e2b565b509392505050565b600082601f830112610e9157610e90610d64565b5b8135610ea1848260208601610e3a565b91505092915050565b600060208284031215610ec057610ebf610d5a565b5b600082013567ffffffffffffffff811115610ede57610edd610d5f565b5b610eea84828501610e7c565b91505092915050565b600081519050919050565b600082825260208201905092915050565b60005b83811015610f2d578082015181840152602081019050610f12565b83811115610f3c576000848401525b50505050565b6000610f4d82610ef3565b610f578185610efe565b9350610f67818560208601610f0f565b610f7081610d6e565b840191505092915050565b600073ffffffffffffffffffffffffffffffffffffffff82169050919050565b6000610fa682610f7b565b9050919050565b610fb681610f9b565b82525050565b600081519050919050565b600082825260208201905092915050565b6000819050602082019050919050565b6000819050919050565b610ffb81610fe8565b82525050565b60008115159050919050565b61101681611001565b82525050565b600060a08301600083015184820360008601526110398282610f42565b915050602083015184820360208601526110538282610f42565b91505060408301516110686040860182610ff2565b50606083015161107b606086018261100d565b50608083015184820360808601526110938282610f42565b9150508091505092915050565b60006110ac838361101c565b905092915050565b6000602082019050919050565b60006110cc82610fbc565b6110d68185610fc7565b9350836020820285016110e885610fd8565b8060005b85811015611124578484038952815161110585826110a0565b9450611110836110b4565b925060208a019950506001810190506110ec565b50829750879550505050505092915050565b600060c08301600083015184820360008601526111538282610f42565b9150506020830151848203602086015261116d8282610f42565b915050604083015184820360408601526111878282610f42565b915050606083015161119c6060860182610fad565b50608083015184820360808601526111b48282610f42565b91505060a083015184820360a08601526111ce82826110c1565b9150508091505092915050565b600060208201905081810360008301526111f58184611136565b905092915050565b600080fd5b600080fd5b61121081610f9b565b811461121b57600080fd5b50565b60008135905061122d81611207565b92915050565b600067ffffffffffffffff82111561124e5761124d610d7f565b5b602082029050602081019050919050565b600080fd5b61126d81610fe8565b811461127857600080fd5b50565b60008135905061128a81611264565b92915050565b61129981611001565b81146112a457600080fd5b50565b6000813590506112b681611290565b92915050565b600060a082840312156112d2576112d16111fd565b5b6112dc60a0610ddf565b9050600082013567ffffffffffffffff8111156112fc576112fb611202565b5b61130884828501610e7c565b600083015250602082013567ffffffffffffffff81111561132c5761132b611202565b5b61133884828501610e7c565b602083015250604061134c8482850161127b565b6040830152506060611360848285016112a7565b606083015250608082013567ffffffffffffffff81111561138457611383611202565b5b61139084828501610e7c565b60808301525092915050565b60006113af6113aa84611233565b610ddf565b905080838252602082019050602084028301858111156113d2576113d161125f565b5b835b8181101561141957803567ffffffffffffffff8111156113f7576113f6610d64565b5b80860161140489826112bc565b855260208501945050506020810190506113d4565b5050509392505050565b600082601f83011261143857611437610d64565b5b813561144884826020860161139c565b91505092915050565b600060c08284031215611467576114666111fd565b5b61147160c0610ddf565b9050600082013567ffffffffffffffff81111561149157611490611202565b5b61149d84828501610e7c565b600083015250602082013567ffffffffffffffff8111156114c1576114c0611202565b5b6114cd84828501610e7c565b602083015250604082013567ffffffffffffffff8111156114f1576114f0611202565b5b6114fd84828501610e7c565b60408301525060606115118482850161121e565b606083015250608082013567ffffffffffffffff81111561153557611534611202565b5b61154184828501610e7c565b60808301525060a082013567ffffffffffffffff81111561156557611564611202565b5b61157184828501611423565b60a08301525092915050565b60006020828403121561159357611592610d5a565b5b600082013567ffffffffffffffff8111156115b1576115b0610d5f565b5b6115bd84828501611451565b91505092915050565b600081905092915050565b60006115dc82610ef3565b6115e681856115c6565b93506115f6818560208601610f0f565b80840191505092915050565b600061160e82846115d1565b915081905092915050565b600082825260208201905092915050565b7f6e6f2d6163636f756e742d6173736f6369617465642d776974682d68616e646c60008201527f6500000000000000000000000000000000000000000000000000000000000000602082015250565b6000611686602183611619565b91506116918261162a565b604082019050919050565b600060208201905081810360008301526116b581611679565b9050919050565b7f4e487b7100000000000000000000000000000000000000000000000000000000600052602260045260246000fd5b6000600282049050600182168061170357607f821691505b602082108103611716576117156116bc565b5b50919050565b7f4e487b7100000000000000000000000000000000000000000000000000000000600052601160045260246000fd5b600061175682610fe8565b915061176183610fe8565b9250828210156117745761177361171c565b5b828203905092915050565b7f4e487b7100000000000000000000000000000000000000000000000000000000600052603260045260246000fd5b6000819050919050565b60006117c3826117ae565b91507f800000000000000000000000000000000000000000000000000000000000000082036117f5576117f461171c565b5b600182039050919050565b7f48616e646c6520697320616c7265616479207573656400000000000000000000600082015250565b6000611836601683611619565b915061184182611800565b602082019050919050565b6000602082019050818103600083015261186581611829565b9050919050565b7f496e76616c6964204f776e657220416464726573730000000000000000000000600082015250565b60006118a2601583611619565b91506118ad8261186c565b602082019050919050565b600060208201905081810360008301526118d181611895565b9050919050565b60006118e382610fe8565b91507fffffffffffffffffffffffffffffffffffffffffffffffffffffffffffffffff82036119155761191461171c565b5b60018201905091905056fea2646970667358221220f0c39c8848f28bf9ebaae5ea1c08806a6020bd10b2a5ee5ad091330875b65af464736f6c634300080d003368747470733a2f2f6170702e6d796b6e6f742e636f2f752f73616d692e6d697368616c516d66515272707766504c3737746a3347587a4b78623577475031383459327038526f3873764346717655597067516d66484c3368504b4c7946586f464d566f7a5053476b4851687773677137726364674b636b77426f7847476a68516d544b36634e3834724532554159534c5762327741697976693155763752774b474d4279694a4a356d69517153516d614352646e573133596b4446397558655954507032444e64324c596335557376655a36666f31507377424348516d66456a61767a69424c37776d6743575a5676714554744554456f4346714b465a454c797a4639384e3331324e68747470733a2f2f7777772e6c696e6b6564696e2e636f6d2f696e2f73616d692d6d697368616c2d3631323236313136312f516d577a336a7376313671756e6a4d71437877723453786454527748523239756b3143777035326a647a764e6d6868747470733a2f2f7777772e66616365626f6f6b2e636f6d2f73616d792e6d697368616c2f516d6242484d37687864525067396a687842675237764c6f66375a4a796b364479613141587668356a7a41544a65",
  "immutableReferences": {},
  "source": "pragma solidity >=0.4.22 <0.9.0;\n\ncontract Accounts {\n    address private owner;\n\n    // struct Account {\n    //     string handle;\n    //     string name;\n    //     address owner;\n    //     mapping(uint => Link) links;\n    //     uint linksSize;\n    // }\n\n    struct Account {\n        string handle;\n        string name;\n        string subtitle;\n        address owner;\n        string profileImg;\n        Link[] links;\n    }\n\n\n    struct Link {\n        string label;\n        string url;\n        uint256 etherLimit;\n        bool enabled;\n        string thumbnail;\n    }\n\n    mapping(address => Account) private accounts;\n    mapping(string => address) handles;\n\n\n    constructor(){\n        owner = msg.sender;\n\n        // accounts[0x706a1415bc5ea0576B5a93bEe633F87E62CA759A];\n        accounts[0x706a1415bc5ea0576B5a93bEe633F87E62CA759A].handle = \"sami.01\";\n        accounts[0x706a1415bc5ea0576B5a93bEe633F87E62CA759A].name = \"Sami 01\";\n        accounts[0x706a1415bc5ea0576B5a93bEe633F87E62CA759A].owner = 0x706a1415bc5ea0576B5a93bEe633F87E62CA759A;\n        accounts[0x706a1415bc5ea0576B5a93bEe633F87E62CA759A].profileImg = \"QmaCRdnW13YkDF9uXeYTPp2DNd2LYc5UsveZ6fo1PswBCH\";\n        accounts[0x706a1415bc5ea0576B5a93bEe633F87E62CA759A].links.push(Link(\"Knot\",\"https://app.myknot.co/u/sami.mishal\", .2 ether,true,\"QmfHL3hPKLyFXoFMVozPSGkHQhwsgq7rcdgKckwBoxGGjh\"));\n        accounts[0x706a1415bc5ea0576B5a93bEe633F87E62CA759A].links.push(Link(\"WhatsApp\",\"https://wa.me/201010187812\", 0.2 ether,true, \"QmWz3jsv16qunjMqCxwr4SxdTRwHR29uk1Cwp52jdzvNmh\"));\n        accounts[0x706a1415bc5ea0576B5a93bEe633F87E62CA759A].links.push(Link(\"WhatsApp PERSONAL\",\"https://wa.me/20158199897\", 1 ether,true, \"QmWz3jsv16qunjMqCxwr4SxdTRwHR29uk1Cwp52jdzvNmh\"));\n        handles[\"sami.01\"] = 0x706a1415bc5ea0576B5a93bEe633F87E62CA759A;\n\n        // accounts[0x4c8C8Eb8A0cdEB8D448d485baAC488065326dbAf];\n        accounts[0x4c8C8Eb8A0cdEB8D448d485baAC488065326dbAf].handle = \"sami.02\";\n        accounts[0x4c8C8Eb8A0cdEB8D448d485baAC488065326dbAf].name = \"Sami 02\";\n        accounts[0x4c8C8Eb8A0cdEB8D448d485baAC488065326dbAf].owner = 0x4c8C8Eb8A0cdEB8D448d485baAC488065326dbAf;\n        accounts[0x4c8C8Eb8A0cdEB8D448d485baAC488065326dbAf].profileImg = \"QmbBHM7hxdRPg9jhxBgR7vLof7ZJyk6Dya1AXvh5jzATJe\";\n        accounts[0x4c8C8Eb8A0cdEB8D448d485baAC488065326dbAf].links.push(Link(\"Github\",\"https://github.com/samishal1998\", 0.3 ether,true,\"QmfQRrpwfPL77tj3GXzKxb5wGP184Y2p8Ro8svCFqvUYpg\"));\n        accounts[0x4c8C8Eb8A0cdEB8D448d485baAC488065326dbAf].links.push(Link(\"LinkedIn\",\"https://www.linkedin.com/in/sami-mishal-612261161/\",0.3 ether,true,\"QmTK6cN84rE2UAYSLWb2wAiyvi1Uv7RwKGMByiJJ5miQqS\"));\n        accounts[0x4c8C8Eb8A0cdEB8D448d485baAC488065326dbAf].links.push(Link(\"Facebook\",\"https://www.facebook.com/samy.mishal/\",2 ether,true,\"QmfEjavziBL7wmgCWZVvqETtETEoCFqKFZELyzF98N312N\"));\n        handles[\"sami.02\"] = 0x4c8C8Eb8A0cdEB8D448d485baAC488065326dbAf;\n\n\n    }\n\n\n\n\n    function getAccount(string memory _handle)  public  view returns (Account memory) {\n        address accountAddress = handles[_handle];\n        require(accountAddress != address(0), \"no-account-associated-with-handle\");\n\n        Account memory account = accounts[accountAddress];\n\n        for(int i = int(account.links.length - 1); i >= 0; i--){\n            if(account.links[uint(i)].etherLimit > msg.sender.balance){\n                delete account.links[uint(i)];\n            }\n        }\n        return account;\n    }\n\n    function createAccount(Account memory _account) public {\n\n        require(handles[_account.handle] == address(0),\"Handle is already used\");\n        require(_account.owner != address(0), \"Invalid Owner Address\");\n        //check if address is already used\n\n\n        accounts[_account.owner].handle = _account.handle;\n        accounts[_account.owner].name = _account.name;\n        accounts[_account.owner].owner = _account.owner;\n        delete accounts[_account.owner].links;\n        for(uint i = 0; i<_account.links.length; i++){\n            accounts[_account.owner].links.push(_account.links[i]);\n        }\n        handles[_account.handle] = _account.owner;\n\n    }\n}",
  "sourcePath": "/Users/samimishal/Documents/Code/playground/truffle-project/contracts/Accounts.sol",
  "compiler": {
    "name": "solc",
    "version": "0.8.13+commit.abaa5c0e.Emscripten.clang"
  },
  "schemaVersion": "3.4.13",
  "updatedAt": "2023-05-10T13:22:51.816Z",
  "networkType": "ethereum",
  "devdoc": {
    "kind": "dev",
    "methods": {},
    "version": 1
  },
  "userdoc": {
    "kind": "user",
    "methods": {},
    "version": 1
  }
}